:100000000C9463000C948B000C948B000C948B006C
:100010000C948B000C948B000C948B000C948B0034
:100020000C948B000C948B000C948B000C948B0024
:100030000C948B000C948B000C948B000C948B0014
:100040000C94A7030C948B000C9475030C944F0331
:100050000C948B000C948B000C948B000C948B00F4
:100060000C948B000C948B000000000025002800ED
:100070002B0000000000240027002A0000000000E0
:1000800023002600290004040404040404040202DA
:100090000202020203030303030301020408102007
:1000A0004080010204081020010204081020000012
:1000B0000008000201000003040700000000000027
:1000C0000000F103580911241FBECFEFD8E0DEBFB6
:1000D000CDBF11E0A0E0B1E0E0E4F0E202C00590A5
:1000E0000D92A03BB107D9F723E0A0EBB1E001C02E
:1000F0001D92A035B207E1F710E0C2E6D0E004C0DF
:100100002197FE010E945E09C136D107C9F70E94FE
:1001100087040C9413100C940000CF92DF92EF929E
:10012000FF920F931F93CF93DF936C017A018B01A2
:10013000C0E0D0E0CE15DF0589F0D8016D918D01CA
:10014000D601ED91FC910190F081E02DC601099559
:10015000892B11F47E0102C02196ECCFC701DF91FB
:10016000CF911F910F91FF90EF90DF90CF90089566
:10017000FC01918D828D981761F0828DDF01A80FAF
:10018000B11D5D968C91928D9F5F9F73928F90E0D1
:1001900008958FEF9FEF0895FC01918D828D981740
:1001A00031F0828DE80FF11D858D90E008958FEF7D
:1001B0009FEF0895FC01918D228D892F90E0805C46
:1001C0009F4F821B91098F73992708958EEE91E0BE
:1001D0000E94DA0021E0892B09F420E0822F0895A3
:1001E000FC01848DDF01A80FB11DA35ABF4F2C91D4
:1001F000848D90E001968F739927848FA689B789A3
:100200002C93A089B1898C9180648C93938D848D7B
:10021000981306C00288F389E02D80818F7D80834A
:100220000895EF92FF920F931F93CF93DF93EC010A
:1002300081E0888F9B8D8C8D981305C0E889F989A2
:10024000808185FD24C0F62E0B8D10E00F5F1F4FBF
:100250000F731127E02E8C8DE8120CC00FB607FC2F
:10026000FACFE889F989808185FFF5CFCE010E9418
:10027000F000F1CF8B8DFE01E80FF11DE35AFF4F27
:10028000F0820B8FEA89FB898081806207C0EE894A
:10029000FF896083E889F98980818064808381E0B7
:1002A00090E0DF91CF911F910F91FF90EF90089513
:1002B000CF93DF93EC01888D8823C9F0EA89FB890D
:1002C000808185FD05C0A889B9898C9186FD0FC004
:1002D0000FB607FCF5CF808185FFF2CFA889B989D9
:1002E0008C9185FFEDCFCE010E94F000E7CFDF912A
:1002F000CF91089580E090E0892B29F00E94E600DC
:1003000081110C9400000895833081F028F481302D
:1003100099F08230A1F008958730A9F08830B9F0C3
:100320008430D1F4809180008F7D03C08091800063
:100330008F7780938000089584B58F7702C084B54D
:100340008F7D84BD08958091B0008F7703C0809128
:10035000B0008F7D8093B0000895CF93DF9390E03D
:10036000FC01E656FF4F2491FC01EA57FF4F8491B0
:10037000882361F190E0880F991FFC01EE58FF4F30
:10038000C591D491FC01E859FF4FA591B491611139
:1003900009C09FB7F8948881209582238883EC91C7
:1003A0002E230BC0623061F49FB7F8943881822FFE
:1003B000809583238883EC912E2B2C939FBF06C0BE
:1003C0008FB7F894E8812E2B28838FBFDF91CF91D0
:1003D00008958EBD00000DB407FEFDCF8EB50895C3
:1003E0001F93CF93DF93809142038823A9F0E0917C
:1003F000440391E09E0F90934403F0E0EE0FFF1F43
:10040000E35FFC4F35892689815080934203903108
:10041000C9F41092440316C090911F03992319F157
:10042000E091210381E08E0F80932103F0E0E35FF0
:10043000FC4F1281915090931F03803131F4109240
:10044000210303C0832F922F15C08BE50E94E90181
:10045000282F30E0D22FCC27812F0E94E9019E0166
:10046000282BC90107C08AE50E94E901282F30E046
:1004700010E0F0CFDF91CF911F9108954F925F92DE
:100480006F927F928F929F92AF92BF92CF92DF92A4
:10049000EF92FF920F931F93CF93DF9300D000D082
:1004A000CDB7DEB74C01270138010B8D1C8DDC0167
:1004B0005D965C934E935C975B967C936E935A9794
:1004C0005F963C932E935E97D8961C92FC0110AADF
:1004D00011AA12AA13AA80E090E0AFE7B3E484ABBC
:1004E00095ABA6ABB7AB84E690E0A0E0B0E084A704
:1004F00095A7A6A7B7A7118F008F20E030E0A9012C
:10050000C301B2010E94D10987FD7AC020E030E02A
:10051000A901C601B5010E94D10987FD71C020E083
:1005200030E0A9016F89788D898D9A8D0E94D1095B
:1005300087FD66C0D4014D925D926D927C921397B7
:10054000F401A482B582C682D7828F89988DA98D45
:10055000BA8D80879187A287B38744865586668641
:1005600077862DEC3CEC4CEC5DE3C601B5010E94B6
:10057000C20A69837A838B839C83F401608B718BBD
:10058000828B938B2DEC3CEC4CEC5DE36F89788D8A
:10059000898D9A8D0E94D6096B017C01D4015496F5
:1005A0006D937D938D939C9357970130110541F581
:1005B000A301920160E070E0CB010E946409F401A4
:1005C000648775878687978729813A814B815C810B
:1005D00060E070E0CB010E946409D40150966D93F5
:1005E0007D938D939C935397A701960160E070E0F3
:1005F000CB010E946409F401648B758B868B978B09
:100600002FB7F8948091B6019091B701A091B801ED
:10061000B091B9012FBFF40144A555A566A577A5F2
:10062000841B950BA60BB70B80A391A3A2A3B3A326
:100630000F900F900F900F90DF91CF911F910F911E
:10064000FF90EF90DF90CF90BF90AF909F908F90F2
:100650007F906F905F904F900895009769F0FC0134
:1006600001900020E9F73197AF01481B590BBC01FD
:100670008EEE91E00C948D0080E090E00895CF9391
:10068000DF930E942D03EC0186E191E00E942D038F
:100690008C0F9D1FDF91CF9108950E94260D1F9210
:1006A0000F920FB60F9211242F933F934F935F93A6
:1006B0006F937F938F939F93AF93BF93EF93FF932A
:1006C0008EEE91E00E94F000FF91EF91BF91AF910B
:1006D0009F918F917F916F915F914F913F912F915A
:1006E0000F900FBE0F901F9018951F920F920FB68C
:1006F0000F9211242F938F939F93EF93FF93E09189
:10070000FE01F091FF018081E0910402F091050269
:1007100082FD12C09081809107028F5F8F732091BC
:100720000802821751F0E0910702F0E0E251FE4F1B
:10073000958F8093070201C08081FF91EF919F9177
:100740008F912F910F900FBE0F901F9018951F92B1
:100750000F920FB60F9211242F933F938F939F9375
:10076000AF93BF938091B6019091B701A091B8016A
:10077000B091B9013091B40123E0230F2D3720F45B
:100780000196A11DB11D05C026E8230F0296A11DEB
:10079000B11D2093B4018093B6019093B701A0934B
:1007A000B801B093B9018091B0019091B101A091CD
:1007B000B201B091B3010196A11DB11D8093B001AA
:1007C0009093B101A093B201B093B301BF91AF91E7
:1007D0009F918F913F912F910F900FBE0F901F907F
:1007E0001895AF92BF92CF92DF92EF92FF920F9344
:1007F0001F93CF93DF93EEEEF1E01382128288EE27
:1008000093E0A0E0B0E084839583A683B7838AE079
:1008100091E09183808385EC90E09587848784ECD8
:1008200090E09787868780EC90E0918B808B81ECBD
:1008300090E0938B828B82EC90E0958B848B06EC1E
:1008400010E0178B068B118E128E138E148ECDE056
:10085000D3E01A8A1B8A1C8A1DAA1EAA1FAA18AED8
:100860001CAE1BAE8EE190E090934B0380934A0345
:1008700088E691E00E942F0B9983888388E790E0B7
:1008800090930C0380930B0310930A0300930903C6
:100890001F921F92DFE3DF93C0E8CF931F921F9256
:1008A000A12CB12C80EAC82E80E4D82EE12CF12CAA
:1008B00000E010E424EC32E048EC52E06CEC72E032
:1008C00080ED92E00E943E021F921F92DF93CF9331
:1008D0001F921F9224EC32E048EC52E06CEC72E084
:1008E0008BE892E00E943E028DB79EB70C960FB641
:1008F000F8949EBF0FBE8DBFDF91CF911F910F91D6
:10090000FF90EF90DF90CF90BF90AF900895CF937E
:10091000DF93CDB7DEB7CD55D1090FB6F894DEBF62
:100920000FBECDBF789484B5826084BD84B58160EC
:1009300084BD85B5826085BD85B5816085BD8091AA
:100940006E00816080936E00109281008091810022
:10095000826080938100809181008160809381001A
:10096000809180008160809380008091B1008460DC
:100970008093B1008091B00081608093B00080913D
:100980007A00846080937A0080917A0082608093FC
:100990007A0080917A00816080937A0080917A0059
:1009A000806880937A001092C100E091FE01F0917E
:1009B000FF0182E08083E091FA01F091FB01108257
:1009C000E091FC01F091FD018FEC80831092060212
:1009D000E0910202F091030286E08083E091000240
:1009E000F0910102808180618083E0910002F091AA
:1009F0000102808188608083E0910002F091010211
:100A0000808180688083E0910002F0910102808102
:100A10008F7D808389E191E00E942D030FB7F894C8
:100A20008091B50181113FC020E930E0F901849146
:100A300044EA50E0FA01649190E0880F991F8E58C3
:100A40009F4FFC01A591B4918C916823D1F4E8EB00
:100A5000F0E08491FA01F490F9011491112389F0E6
:100A600081110E948401E12FF0E0EE0FFF1FE85991
:100A7000FF4FA591B4918FB7F8944C914F294C93A7
:100A80008FBF61E08AE00E94AD018CB580618CBDB2
:100A90008CB580648CBD61E08DE00E94AD0161E0A9
:100AA0008BE00E94AD018091B5018F5F8093B5010D
:100AB0000FBF8CB58C7F81608CBD8DB58E7F8DBD59
:100AC00082E090E09093C7018093C60183E090E0BC
:100AD0009093C9018093C80189E090E09093CB0185
:100AE0008093CA0166E271E08EEC91E00E94340DC1
:100AF00085E090E09093DB018093DA0184E090E060
:100B00009093DD018093DC018AE090E09093DF0117
:100B10008093DE0187E090E09093CD018093CC013B
:100B200062E371E082EE91E00E94340D61E082E0C8
:100B30000E94AD0161E08091C8010E94AD0161E0B9
:100B40008091CA010E94AD0160E08091CC010E94B9
:100B5000AD0161E08091DA010E94AD0161E0809118
:100B6000DC010E94AD0161E08091DE010E94AD01D7
:100B700060E08091E0010E94AD0180E090E0AFE193
:100B8000B3E48093C4029093C502A093C602B093CD
:100B9000C702809108030091EC021091ED028111CF
:100BA00045C0D801CD90DD90ED90FC90C092F4024C
:100BB000D092F502E092F602F092F702E091EA029A
:100BC000F091EB0280819181A281B3818093F80240
:100BD0009093F902A093FA02B093FB028090040371
:100BE00090900503A0900603B0900703A50194011F
:100BF000C701B6010E94BD0A181684F08090000358
:100C000090900103A0900203B0900303A50194010A
:100C1000C701B6010E94D10987FF08C08092F40283
:100C20009092F502A092F602B092F70281E08093D2
:100C30000803109200031092010310920203109215
:100C40000303812C912C4FE7A42E43E4B42E809211
:100C5000040390920503A0920603B0920703F801E3
:100C6000C080D180E280F380A5019401C701B60164
:100C70000E94BD0A18163CF4D8018D929D92AD9247
:100C8000BC9213970EC020E030E0A901C701B60165
:100C90000E94D10987FF05C0F801108211821282DB
:100CA00013828090F4029090F502A090F602B0902A
:100CB000F702C0900403D0900503E0900603F09083
:100CC0000703A7019601C501B4010E94BD0A1816C9
:100CD00084F0C0900003D0900103E0900203F090F4
:100CE0000303A7019601C501B4010E94D10987FF42
:100CF00008C0C092F402D092F502E092F602F0929F
:100D0000F7028091E8029091E902892B09F43FC033
:100D10002091DC023091DD024091DE025091DF0231
:100D200060E070E0CB010E9464096093DC02709384
:100D3000DD028093DE029093DF022091E002309189
:100D4000E1024091E2025091E30260E070E0CB01E9
:100D50000E9464096093E0027093E1028093E202D2
:100D60009093E3022091E4023091E5024091E60283
:100D70005091E70260E070E0CB010E94640960934B
:100D8000E4027093E5028093E6029093E7021092EA
:100D9000E9021092E802DD24D3942CE0C22E222432
:100DA0002394312C2091CC013091CD013327F901CE
:100DB000E255FF4F8491F901E656FF4F1491F90176
:100DC000EA57FF4F0491002389F081110E948401AA
:100DD000E02FF0E0EE0FFF1FE458FF4FA591B49114
:100DE000EC911E2319F086E891E002C08BE991E0B6
:100DF0000E943F038091BE01811115C02FB7F89466
:100E00008091B6019091B701A091B801B091B9015C
:100E10002FBF8093BA019093BB01A093BC01B09304
:100E2000BD01D092BE0180914503811138C0EE24EE
:100E3000EA94FE2C0E94F0018C01009749F4EF28FF
:100E400011F07801F7CF83E290E00197F1F7C7C086
:100E50008535FAEA9F0751F425E5E2162AEAF206FB
:100E600081F710924703109246031BC086353AEA79
:100E7000930751F445E5E4164AEAF40611F7309277
:100E80004703209246030DC08A3A9545D1F68DE37B
:100E900091E00E943F0380E00E94E901D2CF1092CE
:100EA00045031092490310924803809148039091A2
:100EB00049038238910508F092C00E94F0018C012C
:100EC00005358AEA180739F4D09245031092470392
:100ED0001092460384C006359AEA190739F4D09275
:100EE0004503309247032092460379C0011511054E
:100EF00009F475C080914A0390914B0320914803F7
:100F00003091490382179307A0F44E9690934B03B8
:100F100080934A03C89EB001C99E700D1124809130
:100F20000D0390910E030E945C0C90930E0380932E
:100F30000D032091480330914903C29EC001C39E16
:100F4000900D1124E0900D03F0900E03E80EF91EB1
:100F50005701812C912C20E080914603909147030A
:100F6000892B41F4253031F4D7011B961C921E9237
:100F70001A9711C06E962FAF6E970E94F001880EDF
:100F8000991EF501819391935F016E962FAD6E9737
:100F90002F5F263009F70815190551F48091480391
:100FA000909149030196909349038093480304C0AC
:100FB00085E491E00E943F030E94F0018535FAEA42
:100FC0009F0729F410924703109246036ECF86358F
:100FD0009A4A29F4309247032092460366CF8091C3
:100FE000C4029091C502A091C602B091C70280933D
:100FF000CC029093CD02A093CE02B093CF02809109
:101000000803882309F418C18FB7F8942091B6011A
:101010003091B7014091B8015091B9016D962CAF54
:101020003DAF4EAF5FAF6D978FBF8091F002909153
:10103000F102A091F202B091F3026D964CAD5DAD5C
:101040006EAD7FAD6D97481B590B6A0B7B0B809182
:10105000FC029091FD02A091FE02B091FF024817A0
:1010600059076A077B0708F4E7C0E091EA02F091AC
:10107000EB024080518062807380E091EE02F0913B
:10108000EF02A301920160817181828193810E94AC
:10109000640965966CAF7DAF8EAF9FAF6597209169
:1010A000E0023091E1024091E2025091E3020E949D
:1010B000C20A2091F4023091F5024091F60250915B
:1010C000F7020E9465094B015C016093F402709382
:1010D000F5028093F6029093F702E0900403F090FB
:1010E000050300910603109107039701A8010E94D0
:1010F000BD0A18165CF4C701D8018093F4029093DE
:10110000F502A093F602B093F70224C08091000389
:1011100090910103A0910203B091030369968CAFF3
:101120009DAFAEAFBFAF69979C01AD01C501B401E2
:101130000E94D10987FF0EC069962CAD3DAD4EAD22
:101140005FAD69972093F4023093F5024093F60265
:101150005093F7022091DC023091DD024091DE02D3
:101160005091DF0265966CAD7DAD8EAD9FAD6597FC
:101170000E94C20A2091F4023091F5024091F602D9
:101180005091F7020E9465094B015C012091F80221
:101190003091F9024091FA025091FB02C301B20171
:1011A0000E9464092091E4023091E5024091E60238
:1011B0005091E7020E94C20A9B01AC01C501B40133
:1011C0000E9464094B015C019701A8010E94BD0ABD
:1011D000181694F0E0900003F090010300910203D0
:1011E000109103039701A801B401C5010E94D10920
:1011F00087FD02C074018501E091EC02F091ED02DF
:10120000C701D80180839183A283B3834092F802FF
:101210005092F9026092FA027092FB026D968CADC8
:101220009DADAEADBFAD6D978093F0029093F1028E
:10123000A093F202B093F3028091CB028F9380913E
:10124000CA028F938091C9028F938091C8028F93B5
:101250008091C7028F938091C6028F938091C502BF
:101260008F938091C4028F938091CF028F9380914E
:10127000CE028F938091CD028F938091CC028F9379
:10128000AEE4B1E0BF93AF9321E030E02C0F3D1FFF
:101290003F932F930E943B0DCE0101960E942D0398
:1012A0000FB6F894DEBF0FBECDBF0E947A017ACD93
:1012B00080910D0390910E030C94C40BEE0FFF1F51
:1012C0000590F491E02D09945058BB27AA270E945D
:1012D0007C090C94830A0E94750A38F00E947C0AEB
:1012E00020F039F49F3F19F426F40C94720A0EF49E
:1012F000E095E7FB0C946C0AE92F0E94940A58F3DE
:10130000BA17620773078407950720F079F4A6F5EA
:101310000C94B60A0EF4E0950B2EBA2FA02D0B01FB
:10132000B90190010C01CA01A0011124FF27591B2A
:1013300099F0593F50F4503E68F11A16F040A22F30
:10134000232F342F4427585FF3CF469537952795A1
:10135000A795F0405395C9F77EF41F16BA0B620BA0
:10136000730B840BBAF09150A1F0FF0FBB1F661FE7
:10137000771F881FC2F70EC0BA0F621F731F841F2A
:1013800048F4879577956795B795F7959E3F08F050
:10139000B0CF9395880F08F09927EE0F9795879512
:1013A00008950E94480A08F481E008950E94EA091D
:1013B0000C94830A0E947C0A58F00E94750A40F03F
:1013C00029F45F3F29F00C946C0A51110C94B70A70
:1013D0000C94720A0E94940A68F39923B1F355237E
:1013E00091F3951B550BBB27AA2762177307840738
:1013F00038F09F5F5F4F220F331F441FAA1FA9F3CE
:1014000035D00E2E3AF0E0E832D091505040E695BB
:10141000001CCAF72BD0FE2F29D0660F771F881F1C
:10142000BB1F261737074807AB07B0E809F0BB0B0F
:10143000802DBF01FF2793585F4F3AF09E3F510523
:1014400078F00C946C0A0C94B70A5F3FE4F3983E72
:10145000D4F3869577956795B795F7959F5FC9F70C
:10146000880F911D9695879597F90895E1E0660F8D
:10147000771F881FBB1F621773078407BA0720F006
:10148000621B730B840BBA0BEE1F88F7E09508956F
:10149000990F0008550FAA0BE0E8FEEF1616170685
:1014A000E807F907C0F012161306E407F50798F0ED
:1014B000621B730B840B950B39F40A2661F0232B06
:1014C000242B252B21F408950A2609F4A140A69582
:1014D0008FEF811D811D089597F99F6780E870E067
:1014E00060E008959FEF80EC089500240A9416169A
:1014F000170618060906089500240A941216130602
:10150000140605060895092E0394000C11F488238F
:1015100052F0BB0F40F4BF2B11F460FF04C06F5FAB
:101520007F4F8F4F9F4F089557FD9058440F551F81
:1015300059F05F3F71F04795880F97FB991F61F055
:101540009F3F79F087950895121613061406551FCC
:10155000F2CF4695F1DF08C0161617061806991F38
:10156000F1CF86957105610508940895E894BB272D
:1015700066277727CB0197F908950E94480A08F457
:101580008FEF08950E94D50A0C94830A0E94750A71
:1015900038F00E947C0A20F0952311F00C946C0A1C
:1015A0000C94720A11240C94B70A0E94940A70F3E6
:1015B000959FC1F3950F50E0551F629FF001729FF8
:1015C000BB27F00DB11D639FAA27F00DB11DAA1F07
:1015D000649F6627B00DA11D661F829F2227B00D54
:1015E000A11D621F739FB00DA11D621F839FA00DDF
:1015F000611D221F749F3327A00D611D231F849F2F
:10160000600D211D822F762F6A2F11249F57504085
:101610009AF0F1F088234AF0EE0FFF1FBB1F661F00
:10162000771F881F91505040A9F79E3F510580F0C9
:101630000C946C0A0C94B70A5F3FE4F3983ED4F321
:10164000869577956795B795F795E7959F5FC1F76D
:10165000FE2B880F911D9695879597F90895CF9346
:10166000DF938230910510F482E090E0E0914E0328
:10167000F0914F0320E030E0C0E0D0E0309711F16E
:101680004081518148175907C0F04817590761F444
:1016900082819381209719F09B838A832BC090933A
:1016A0004F0380934E0326C02115310519F04217D0
:1016B000530718F49A01BE01DF01EF010280F381A4
:1016C000E02DDCCF2115310509F1281B390B243021
:1016D000310590F412968D919C91139761157105C7
:1016E00021F0FB019383828304C090934F03809386
:1016F0004E03FD01329644C0FD01E20FF31F8193BA
:101700009193225031092D933C933AC020914C0380
:1017100030914D03232B41F42091020130910301BC
:1017200030934D0320934C0320910001309101012F
:101730002115310541F42DB73EB740910401509178
:101740000501241B350BE0914C03F0914D03E2178A
:10175000F307A0F42E1B3F0B2817390778F0AC01D4
:101760004E5F5F4F2417350748F04E0F5F1F5093B1
:101770004D0340934C038193919302C0E0E0F0E06D
:10178000CF01DF91CF9108950F931F93CF93DF93F4
:10179000009709F48CC0FC013297138212820091E9
:1017A0004E0310914F030115110581F42081318101
:1017B000820F931F20914C0330914D032817390756
:1017C00079F5F0934D03E0934C0371C0D80140E0EC
:1017D00050E0AE17BF0750F412962D913C9113972D
:1017E000AD012115310509F1D901F3CF9D01DA01D0
:1017F0003383228360817181860F971F821793073D
:1018000069F4EC0128813981260F371F2E5F3F4F85
:10181000318320838A819B8193838283452B29F4A2
:10182000F0934F03E0934E0342C01396FC93EE9364
:101830001297ED01499159919E01240F351FE2172E
:10184000F30771F480819181840F951F02961196A0
:101850009C938E938281938113969C938E9312977F
:10186000E0E0F0E0D80112968D919C9113970097DB
:1018700019F0F8018C01F6CF8D919C9198012E5FA3
:101880003F4F820F931F20914C0330914D03281737
:10189000390769F4309729F410924F0310924E03E0
:1018A00002C01382128210934D0300934C03DF9108
:1018B000CF911F910F910895A0E0B0E0E2E6FCE027
:1018C0000C94E00FEC01009721F4CB010E942F0B48
:1018D000B8C0FC01E60FF71F9C0122503109E21746
:1018E000F30708F4ACC0D9010D911C9111970617AC
:1018F0001707B0F00530110508F49FC0C801049720
:101900008617970708F499C002501109061B170B98
:10191000019311936D937C93CF010E94C40B8DC0F2
:101920005B01A01AB10A4C01800E911EA0914E03DA
:10193000B0914F0340E050E0E12CF12C109709F4F6
:101940004AC0A815B905D1F56D907C901197630137
:1019500082E0C80ED11CCA14DB0480F1A3014A192D
:101960005B096A0182E0C80ED11C1296BC901297E6
:101970001396AC91B5E0CB16D10440F0B282A383AC
:1019800051834083D9016D937C930AC00E5F1F4F32
:10199000C301800F911FF90191838083EB2DFA2FF2
:1019A000E114F10431F0D7011396FC93EE931297F2
:1019B00044C0F0934F03E0934E033FC08D919C9140
:1019C00011974817590708F4AC017D0112960D9044
:1019D000BC91A02DB3CF80914C0390914D038815FD
:1019E0009905E1F446175707C8F4809100019091DA
:1019F0000101009741F48DB79EB7409104015091C9
:101A00000501841B950BE817F907C8F4F0934D0303
:101A1000E0934C03F901718360830FC0CB010E94F6
:101A20002F0B7C01009759F0A801BE010E942B0DDD
:101A3000CE010E94C40BC70104C0CE0102C080E0E9
:101A400090E0CDB7DEB7EEE00C94FC0F81E090E0C3
:101A5000F8940C941310FB01DC0102C001900D926C
:101A600041505040D8F70895FB01DC0101900D92E0
:101A70000020E1F70895AEE0B0E0E1E4FDE00C9471
:101A8000EA0F0D891E8986E08C831A8309838FEF04
:101A90009FE79E838D83AE01475E5F4F6F89788D90
:101AA000CE0101960E945E0D2F813885F801E20F6C
:101AB000F31F10822E96E4E00C940610ACE0B0E028
:101AC000E4E6FDE00C94DC0F7C016B018A01FC0173
:101AD00017821682838181FFBDC1CE0101964C0120
:101AE000F7019381F60193FD859193FF81916F0139
:101AF000882309F4ABC1853239F493FD859193FFB6
:101B000081916F01853229F4B70190E00E94460F60
:101B1000E7CF512C312C20E02032A0F48B3269F039
:101B200030F4803259F0833269F420612CC08D3258
:101B300039F0803339F4216026C02260246023C04C
:101B4000286021C027FD27C030ED380F3A3078F4E7
:101B500026FF06C0FAE05F9E300D1124532E13C0FD
:101B60008AE0389E300D1124332E20620CC08E3254
:101B700021F426FD6BC1206406C08C3611F4206868
:101B800002C0883641F4F60193FD859193FF81915F
:101B90006F018111C1CF982F9F7D9554933028F408
:101BA0000C5F1F4FFFE3F9830DC0833631F083379D
:101BB00071F0833509F05BC022C0F8018081898310
:101BC0000E5F1F4F44244394512C540115C038011B
:101BD000F2E06F0E711CF801A080B18026FF03C0F7
:101BE000652D70E002C06FEF7FEFC5012C870E946A
:101BF0003B0F2C0183012C852F77222E17C0380133
:101C0000F2E06F0E711CF801A080B18026FF03C0C6
:101C1000652D70E002C06FEF7FEFC5012C870E9439
:101C2000300F2C012C852068222E830123FC1BC041
:101C3000832D90E048165906B0F4B70180E290E099
:101C40000E94460F3A94F4CFF50127FC859127FEB8
:101C500081915F01B70190E00E94460F31103A94E4
:101C6000F1E04F1A51084114510471F7E5C0843670
:101C700011F0893639F5F80127FF07C060817181BD
:101C8000828193810C5F1F4F08C060817181072E94
:101C9000000C880B990B0E5F1F4F2F76722E97FF4B
:101CA00009C090958095709561957F4F8F4F9F4F9C
:101CB0002068722E2AE030E0A4010E947E0FA82E38
:101CC000A81844C0853729F42F7EB22E2AE030E0D0
:101CD00025C0F22FF97FBF2E8F36C1F018F488355A
:101CE00079F0B4C0803719F0883721F0AFC02F2FBA
:101CF0002061B22EB4FE0DC08B2D8460B82E09C0B9
:101D000024FF0AC09F2F9660B92E06C028E030E05D
:101D100005C020E130E002C020E132E0F801B7FE6A
:101D200007C060817181828193810C5F1F4F06C063
:101D30006081718180E090E00E5F1F4FA4010E94DE
:101D40007E0FA82EA818FB2DFF777F2E76FE0BC0E6
:101D5000372D3E7FA51450F474FE0AC072FC08C0F3
:101D6000372D3E7E05C0BA2C372D03C0BA2C01C0DA
:101D7000B52C34FF0DC0FE01EA0DF11D80818033CA
:101D800011F4397E09C032FF06C0B394B39404C085
:101D9000832F867809F0B39433FD13C030FF06C05B
:101DA0005A2CB31418F4530C5B18B32CB31468F406
:101DB000B70180E290E03C870E94460FB3943C85D7
:101DC000F5CFB31410F43B1801C0312C34FF12C00E
:101DD000B70180E390E03C870E94460F3C8532FFCC
:101DE00017C031FD03C088E790E002C088E590E0AD
:101DF000B7010CC0832F867859F031FF02C08BE207
:101E000001C080E237FD8DE2B70190E00E94460FED
:101E1000A51438F4B70180E390E00E94460F5A946D
:101E2000F7CFAA94F401EA0DF11D8081B70190E08B
:101E30000E94460FA110F5CF332009F451CEB7010F
:101E400080E290E00E94460F3A94F6CFF701868137
:101E5000978102C08FEF9FEF2C96E2E10C94F80F70
:101E6000FC010590615070400110D8F78095909565
:101E70008E0F9F1F0895FC0161507040019001106A
:101E8000D8F7809590958E0F9F1F08950F931F93FD
:101E9000CF93DF93FB01238121FD03C08FEF9FEFE1
:101EA00028C022FF16C04681578124813581421700
:101EB000530744F4A081B1819D012F5F3F4F3183CF
:101EC00020838C93268137812F5F3F4F3783268372
:101ED00010C0EB01092F182F0084F185E02D099522
:101EE000892BE1F68E819F8101969F838E83812FBE
:101EF000902FDF91CF911F910F910895FA01AA279A
:101F0000283051F1203181F1E8946F936E7F6E5F3C
:101F10007F4F8F4F9F4FAF4FB1E03ED0B4E03CD0EA
:101F2000670F781F891F9A1FA11D680F791F8A1FCD
:101F3000911DA11D6A0F711D811D911DA11D20D034
:101F400009F468943F912AE0269F11243019305DEE
:101F50003193DEF6CF010895462F4770405D4193DF
:101F6000B3E00FD0C9F7F6CF462F4F70405D4A332C
:101F700018F0495D31FD4052419302D0A9F7EACFF4
:101F8000B4E0A6959795879577956795BA95C9F723
:101F900000976105710508959B01AC010A2E069416
:101FA0005795479537952795BA95C9F7620F731FCF
:101FB000841F951FA01D08952F923F924F925F920C
:101FC0006F927F928F929F92AF92BF92CF92DF9249
:101FD000EF92FF920F931F93CF93DF93CDB7DEB7AE
:101FE000CA1BDB0B0FB6F894DEBF0FBECDBF099442
:101FF0002A88398848885F846E847D848C849B8499
:10200000AA84B984C884DF80EE80FD800C811B81A6
:10201000AA81B981CE0FD11D0FB6F894DEBF0FBED5
:10202000CDBFED01089510E0C2E6D0E004C0FE018E
:102030000E945E092196C336D107C9F7F894FFCFF5
:102040000000500380000000000011018D00DA0044
:10205000B800CC0058010D0A005374617274696EA7
:10206000672E2E2E0A005269676874204D6F746FB8
:1020700072004C656674204D6F746F720072656FEC
:1020800072646572006373206572726F7200747798
:10209000697374496E707574203D2025643A20740C
:1020A00077697374536574706F696E74203D202571
:1020B000643A202074776973744F75747075742056
:1020C0003D2025640A00436F6E74726F6C6C6572FC
:1020D0002061206973204849474800436F6E74723D
:1020E0006F6C6C65722061206973204C4F57000043
:107E0000112484B714BE81FFF0D085E080938100F7
:107E100082E08093C00088E18093C10086E0809377
:107E2000C20080E18093C4008EE0C9D0259A86E02C
:107E300020E33CEF91E0309385002093840096BBD3
:107E4000B09BFECF1D9AA8958150A9F7CC24DD24C4
:107E500088248394B5E0AB2EA1E19A2EF3E0BF2EE7
:107E6000A2D0813461F49FD0082FAFD0023811F036
:107E7000013811F484E001C083E08DD089C08234E0
:107E800011F484E103C0853419F485E0A6D080C0E4
:107E9000853579F488D0E82EFF2485D0082F10E0AE
:107EA000102F00270E291F29000F111F8ED06801E7
:107EB0006FC0863521F484E090D080E0DECF843638
:107EC00009F040C070D06FD0082F6DD080E0C81688
:107ED00080E7D80618F4F601B7BEE895C0E0D1E017
:107EE00062D089930C17E1F7F0E0CF16F0E7DF06D8
:107EF00018F0F601B7BEE89568D007B600FCFDCFD4
:107F0000A601A0E0B1E02C9130E011968C91119780
:107F100090E0982F8827822B932B1296FA010C0160
:107F200087BEE89511244E5F5F4FF1E0A038BF0790
:107F300051F7F601A7BEE89507B600FCFDCF97BE46
:107F4000E89526C08437B1F42ED02DD0F82E2BD052
:107F50003CD0F601EF2C8F010F5F1F4F84911BD097
:107F6000EA94F801C1F70894C11CD11CFA94CF0C13
:107F7000D11C0EC0853739F428D08EE10CD085E9AC
:107F80000AD08FE07ACF813511F488E018D01DD067
:107F900080E101D065CF982F8091C00085FFFCCF94
:107FA0009093C60008958091C00087FFFCCF809118
:107FB000C00084FD01C0A8958091C6000895E0E648
:107FC000F0E098E1908380830895EDDF803219F02E
:107FD00088E0F5DFFFCF84E1DECF1F93182FE3DFCA
:107FE0001150E9F7F2DF1F91089580E0E8DFEE27F6
:047FF000FF270994CA
:027FFE00040479
:0400000300007E007B
:00000001FF